{
  "_format": "hh-sol-artifact-1",
  "contractName": "Funding",
  "sourceName": "contracts/Funding.sol",
  "abi": [
    {
      "inputs": [
        {
          "internalType": "uint256",
          "name": "_minContribution",
          "type": "uint256"
        },
        {
          "internalType": "uint256",
          "name": "_maxContribution",
          "type": "uint256"
        }
      ],
      "stateMutability": "nonpayable",
      "type": "constructor"
    },
    {
      "anonymous": false,
      "inputs": [
        {
          "indexed": false,
          "internalType": "uint256",
          "name": "campaignId",
          "type": "uint256"
        },
        {
          "indexed": false,
          "internalType": "uint256",
          "name": "goal",
          "type": "uint256"
        },
        {
          "indexed": false,
          "internalType": "uint256",
          "name": "deadline",
          "type": "uint256"
        }
      ],
      "name": "CampaignCreated",
      "type": "event"
    },
    {
      "anonymous": false,
      "inputs": [
        {
          "indexed": false,
          "internalType": "uint256",
          "name": "campaignId",
          "type": "uint256"
        },
        {
          "indexed": true,
          "internalType": "address",
          "name": "donor",
          "type": "address"
        },
        {
          "indexed": false,
          "internalType": "uint256",
          "name": "amount",
          "type": "uint256"
        }
      ],
      "name": "Funded",
      "type": "event"
    },
    {
      "anonymous": false,
      "inputs": [
        {
          "indexed": false,
          "internalType": "uint256",
          "name": "campaignId",
          "type": "uint256"
        },
        {
          "indexed": true,
          "internalType": "address",
          "name": "contributor",
          "type": "address"
        },
        {
          "indexed": false,
          "internalType": "uint256",
          "name": "amount",
          "type": "uint256"
        }
      ],
      "name": "RefundIssued",
      "type": "event"
    },
    {
      "anonymous": false,
      "inputs": [
        {
          "indexed": false,
          "internalType": "uint256",
          "name": "campaignId",
          "type": "uint256"
        },
        {
          "indexed": true,
          "internalType": "address",
          "name": "owner",
          "type": "address"
        },
        {
          "indexed": false,
          "internalType": "uint256",
          "name": "amount",
          "type": "uint256"
        }
      ],
      "name": "Withdrawn",
      "type": "event"
    },
    {
      "inputs": [],
      "name": "campaignCount",
      "outputs": [
        {
          "internalType": "uint256",
          "name": "",
          "type": "uint256"
        }
      ],
      "stateMutability": "view",
      "type": "function"
    },
    {
      "inputs": [
        {
          "internalType": "uint256",
          "name": "",
          "type": "uint256"
        }
      ],
      "name": "campaigns",
      "outputs": [
        {
          "internalType": "uint256",
          "name": "goal",
          "type": "uint256"
        },
        {
          "internalType": "uint256",
          "name": "deadline",
          "type": "uint256"
        },
        {
          "internalType": "uint256",
          "name": "totalFunds",
          "type": "uint256"
        },
        {
          "internalType": "bool",
          "name": "completed",
          "type": "bool"
        },
        {
          "internalType": "bool",
          "name": "failed",
          "type": "bool"
        }
      ],
      "stateMutability": "view",
      "type": "function"
    },
    {
      "inputs": [
        {
          "internalType": "uint256",
          "name": "goal",
          "type": "uint256"
        },
        {
          "internalType": "uint256",
          "name": "deadline",
          "type": "uint256"
        }
      ],
      "name": "createCampaign",
      "outputs": [],
      "stateMutability": "nonpayable",
      "type": "function"
    },
    {
      "inputs": [
        {
          "internalType": "uint256",
          "name": "campaignId",
          "type": "uint256"
        }
      ],
      "name": "fund",
      "outputs": [],
      "stateMutability": "payable",
      "type": "function"
    },
    {
      "inputs": [
        {
          "internalType": "uint256",
          "name": "campaignId",
          "type": "uint256"
        }
      ],
      "name": "getCampaignDetails",
      "outputs": [
        {
          "internalType": "uint256",
          "name": "goal",
          "type": "uint256"
        },
        {
          "internalType": "uint256",
          "name": "deadline",
          "type": "uint256"
        },
        {
          "internalType": "uint256",
          "name": "totalFunds",
          "type": "uint256"
        },
        {
          "internalType": "bool",
          "name": "completed",
          "type": "bool"
        },
        {
          "internalType": "bool",
          "name": "failed",
          "type": "bool"
        }
      ],
      "stateMutability": "view",
      "type": "function"
    },
    {
      "inputs": [
        {
          "internalType": "uint256",
          "name": "campaignId",
          "type": "uint256"
        }
      ],
      "name": "getContribution",
      "outputs": [
        {
          "internalType": "uint256",
          "name": "",
          "type": "uint256"
        }
      ],
      "stateMutability": "view",
      "type": "function"
    },
    {
      "inputs": [
        {
          "internalType": "uint256",
          "name": "campaignId",
          "type": "uint256"
        }
      ],
      "name": "issueRefund",
      "outputs": [],
      "stateMutability": "nonpayable",
      "type": "function"
    },
    {
      "inputs": [],
      "name": "maxContribution",
      "outputs": [
        {
          "internalType": "uint256",
          "name": "",
          "type": "uint256"
        }
      ],
      "stateMutability": "view",
      "type": "function"
    },
    {
      "inputs": [],
      "name": "minContribution",
      "outputs": [
        {
          "internalType": "uint256",
          "name": "",
          "type": "uint256"
        }
      ],
      "stateMutability": "view",
      "type": "function"
    },
    {
      "inputs": [],
      "name": "owner",
      "outputs": [
        {
          "internalType": "address",
          "name": "",
          "type": "address"
        }
      ],
      "stateMutability": "view",
      "type": "function"
    },
    {
      "inputs": [
        {
          "internalType": "uint256",
          "name": "campaignId",
          "type": "uint256"
        }
      ],
      "name": "withdraw",
      "outputs": [],
      "stateMutability": "nonpayable",
      "type": "function"
    }
  ],
  "bytecode": "0x60806040523480156200001157600080fd5b506040516200175f3803806200175f8339818101604052810190620000379190620000cd565b336000806101000a81548173ffffffffffffffffffffffffffffffffffffffff021916908373ffffffffffffffffffffffffffffffffffffffff1602179055508160038190555080600481905550505062000114565b600080fd5b6000819050919050565b620000a78162000092565b8114620000b357600080fd5b50565b600081519050620000c7816200009c565b92915050565b60008060408385031215620000e757620000e66200008d565b5b6000620000f785828601620000b6565b92505060206200010a85828601620000b6565b9150509250929050565b61163b80620001246000396000f3fe60806040526004361061009c5760003560e01c80638d3d6576116100645780638d3d6576146101885780638da5cb5b146101b3578063aaffadf3146101de578063ca1d209d14610209578063cef4225414610225578063d993de62146102625761009c565b8063141961bc146100a157806322502268146100e25780632e1a7d4d1461010b5780637274e30d146101345780637584e1971461015f575b600080fd5b3480156100ad57600080fd5b506100c860048036038101906100c39190610ec0565b6102a3565b6040516100d9959493929190610f17565b60405180910390f35b3480156100ee57600080fd5b5061010960048036038101906101049190610f6a565b6102f3565b005b34801561011757600080fd5b50610132600480360381019061012d9190610ec0565b610449565b005b34801561014057600080fd5b50610149610724565b6040516101569190610faa565b60405180910390f35b34801561016b57600080fd5b5061018660048036038101906101819190610ec0565b61072a565b005b34801561019457600080fd5b5061019d610a50565b6040516101aa9190610faa565b60405180910390f35b3480156101bf57600080fd5b506101c8610a56565b6040516101d59190611006565b60405180910390f35b3480156101ea57600080fd5b506101f3610a7a565b6040516102009190610faa565b60405180910390f35b610223600480360381019061021e9190610ec0565b610a80565b005b34801561023157600080fd5b5061024c60048036038101906102479190610ec0565b610d36565b6040516102599190610faa565b60405180910390f35b34801561026e57600080fd5b5061028960048036038101906102849190610ec0565b610dd9565b60405161029a959493929190610f17565b60405180910390f35b60026020528060005260406000206000915090508060000154908060010154908060020154908060030160009054906101000a900460ff16908060030160019054906101000a900460ff16905085565b60008054906101000a900473ffffffffffffffffffffffffffffffffffffffff1673ffffffffffffffffffffffffffffffffffffffff163373ffffffffffffffffffffffffffffffffffffffff1614610381576040517f08c379a00000000000000000000000000000000000000000000000000000000081526004016103789061107e565b60405180910390fd5b4281116103c3576040517f08c379a00000000000000000000000000000000000000000000000000000000081526004016103ba906110ea565b60405180910390fd5b6000600260006001548152602001908152602001600020905082816000018190555081816001018190555060018060008282546104009190611139565b925050819055507f83b4437053910ef5d844baa18cd582ee4e0f10e7d117f728da7a91399351bd92600154848460405161043c9392919061116d565b60405180910390a1505050565b60008054906101000a900473ffffffffffffffffffffffffffffffffffffffff1673ffffffffffffffffffffffffffffffffffffffff163373ffffffffffffffffffffffffffffffffffffffff16146104d7576040517f08c379a00000000000000000000000000000000000000000000000000000000081526004016104ce9061107e565b60405180910390fd5b80600154811061051c576040517f08c379a0000000000000000000000000000000000000000000000000000000008152600401610513906111f0565b60405180910390fd5b6000600260008481526020019081526020016000209050806001015442101561057a576040517f08c379a00000000000000000000000000000000000000000000000000000000081526004016105719061125c565b60405180910390fd5b8060000154816002015410156105c5576040517f08c379a00000000000000000000000000000000000000000000000000000000081526004016105bc906112c8565b60405180910390fd5b8060030160009054906101000a900460ff1615610617576040517f08c379a000000000000000000000000000000000000000000000000000000000815260040161060e90611334565b60405180910390fd5b6000816002015490506000826002018190555060018260030160006101000a81548160ff02191690831515021790555060008054906101000a900473ffffffffffffffffffffffffffffffffffffffff1673ffffffffffffffffffffffffffffffffffffffff166108fc829081150290604051600060405180830381858888f193505050501580156106ad573d6000803e3d6000fd5b5060008054906101000a900473ffffffffffffffffffffffffffffffffffffffff1673ffffffffffffffffffffffffffffffffffffffff167fcf7d23a3cbe4e8b36ff82fd1b05b1b17373dc7804b4ebbd6e2356716ef2023728583604051610716929190611354565b60405180910390a250505050565b60015481565b80600154811061076f576040517f08c379a0000000000000000000000000000000000000000000000000000000008152600401610766906111f0565b60405180910390fd5b816002600082815260200190815260200160002060030160009054906101000a900460ff16156107d4576040517f08c379a00000000000000000000000000000000000000000000000000000000081526004016107cb906113c9565b60405180910390fd5b826002600082815260200190815260200160002060030160019054906101000a900460ff1615610839576040517f08c379a000000000000000000000000000000000000000000000000000000000815260040161083090611435565b60405180910390fd5b60006002600086815260200190815260200160002090508060010154421015610897576040517f08c379a000000000000000000000000000000000000000000000000000000000815260040161088e9061125c565b60405180910390fd5b80600001548160020154106108e1576040517f08c379a00000000000000000000000000000000000000000000000000000000081526004016108d8906114a1565b60405180910390fd5b60008160040160003373ffffffffffffffffffffffffffffffffffffffff1673ffffffffffffffffffffffffffffffffffffffff1681526020019081526020016000205490506000811161096a576040517f08c379a00000000000000000000000000000000000000000000000000000000081526004016109619061150d565b60405180910390fd5b60008260040160003373ffffffffffffffffffffffffffffffffffffffff1673ffffffffffffffffffffffffffffffffffffffff168152602001908152602001600020819055503373ffffffffffffffffffffffffffffffffffffffff166108fc829081150290604051600060405180830381858888f193505050501580156109f7573d6000803e3d6000fd5b503373ffffffffffffffffffffffffffffffffffffffff167f7a482fdeb6bc9a1376f597068a214a7a39472bb2eff1b8cad21ba04f49ddca1b8783604051610a40929190611354565b60405180910390a2505050505050565b60045481565b60008054906101000a900473ffffffffffffffffffffffffffffffffffffffff1681565b60035481565b806001548110610ac5576040517f08c379a0000000000000000000000000000000000000000000000000000000008152600401610abc906111f0565b60405180910390fd5b816002600082815260200190815260200160002060030160009054906101000a900460ff1615610b2a576040517f08c379a0000000000000000000000000000000000000000000000000000000008152600401610b21906113c9565b60405180910390fd5b826002600082815260200190815260200160002060030160019054906101000a900460ff1615610b8f576040517f08c379a0000000000000000000000000000000000000000000000000000000008152600401610b8690611435565b60405180910390fd5b60006002600086815260200190815260200160002090506003543410158015610bba57506004543411155b610bf9576040517f08c379a0000000000000000000000000000000000000000000000000000000008152600401610bf090611579565b60405180910390fd5b80600101544210610c3f576040517f08c379a0000000000000000000000000000000000000000000000000000000008152600401610c36906115e5565b60405180910390fd5b348160040160003373ffffffffffffffffffffffffffffffffffffffff1673ffffffffffffffffffffffffffffffffffffffff1681526020019081526020016000206000828254610c909190611139565b9250508190555034816002016000828254610cab9190611139565b925050819055508060000154816002015410610cdf5760018160030160006101000a81548160ff0219169083151502179055505b3373ffffffffffffffffffffffffffffffffffffffff167f38c48552690c96ec2872092ac1db6c19fb59f5a8c5b49bbf41ed4886d0ca69268634604051610d27929190611354565b60405180910390a25050505050565b6000816001548110610d7d576040517f08c379a0000000000000000000000000000000000000000000000000000000008152600401610d74906111f0565b60405180910390fd5b6002600084815260200190815260200160002060040160003373ffffffffffffffffffffffffffffffffffffffff1673ffffffffffffffffffffffffffffffffffffffff16815260200190815260200160002054915050919050565b6000806000806000856001548110610e26576040517f08c379a0000000000000000000000000000000000000000000000000000000008152600401610e1d906111f0565b60405180910390fd5b60006002600089815260200190815260200160002090508060000154816001015482600201548360030160009054906101000a900460ff168460030160019054906101000a900460ff1696509650965096509650505091939590929450565b600080fd5b6000819050919050565b610e9d81610e8a565b8114610ea857600080fd5b50565b600081359050610eba81610e94565b92915050565b600060208284031215610ed657610ed5610e85565b5b6000610ee484828501610eab565b91505092915050565b610ef681610e8a565b82525050565b60008115159050919050565b610f1181610efc565b82525050565b600060a082019050610f2c6000830188610eed565b610f396020830187610eed565b610f466040830186610eed565b610f536060830185610f08565b610f606080830184610f08565b9695505050505050565b60008060408385031215610f8157610f80610e85565b5b6000610f8f85828601610eab565b9250506020610fa085828601610eab565b9150509250929050565b6000602082019050610fbf6000830184610eed565b92915050565b600073ffffffffffffffffffffffffffffffffffffffff82169050919050565b6000610ff082610fc5565b9050919050565b61100081610fe5565b82525050565b600060208201905061101b6000830184610ff7565b92915050565b600082825260208201905092915050565b7f596f7520617265206e6f7420746865206f776e65720000000000000000000000600082015250565b6000611068601583611021565b915061107382611032565b602082019050919050565b600060208201905081810360008301526110978161105b565b9050919050565b7f446561646c696e65206d75737420626520696e20746865206675747572650000600082015250565b60006110d4601e83611021565b91506110df8261109e565b602082019050919050565b60006020820190508181036000830152611103816110c7565b9050919050565b7f4e487b7100000000000000000000000000000000000000000000000000000000600052601160045260246000fd5b600061114482610e8a565b915061114f83610e8a565b92508282019050808211156111675761116661110a565b5b92915050565b60006060820190506111826000830186610eed565b61118f6020830185610eed565b61119c6040830184610eed565b949350505050565b7f43616d706169676e20646f6573206e6f74206578697374000000000000000000600082015250565b60006111da601783611021565b91506111e5826111a4565b602082019050919050565b60006020820190508181036000830152611209816111cd565b9050919050565b7f43616d706169676e206973206e6f742079657420636f6d706c65746564000000600082015250565b6000611246601d83611021565b915061125182611210565b602082019050919050565b6000602082019050818103600083015261127581611239565b9050919050565b7f43616d706169676e20646964206e6f742072656163682074686520676f616c00600082015250565b60006112b2601f83611021565b91506112bd8261127c565b602082019050919050565b600060208201905081810360008301526112e1816112a5565b9050919050565b7f46756e647320616c72656164792077697468647261776e000000000000000000600082015250565b600061131e601783611021565b9150611329826112e8565b602082019050919050565b6000602082019050818103600083015261134d81611311565b9050919050565b60006040820190506113696000830185610eed565b6113766020830184610eed565b9392505050565b7f43616d706169676e20616c726561647920636f6d706c65746564000000000000600082015250565b60006113b3601a83611021565b91506113be8261137d565b602082019050919050565b600060208201905081810360008301526113e2816113a6565b9050919050565b7f43616d706169676e206661696c65640000000000000000000000000000000000600082015250565b600061141f600f83611021565b915061142a826113e9565b602082019050919050565b6000602082019050818103600083015261144e81611412565b9050919050565b7f43616d706169676e20726561636865642069747320676f616c00000000000000600082015250565b600061148b601983611021565b915061149682611455565b602082019050919050565b600060208201905081810360008301526114ba8161147e565b9050919050565b7f4e6f20636f6e747269627574696f6e7320666f756e6400000000000000000000600082015250565b60006114f7601683611021565b9150611502826114c1565b602082019050919050565b60006020820190508181036000830152611526816114ea565b9050919050565b7f436f6e747269627574696f6e20616d6f756e74206f7574206f662072616e6765600082015250565b6000611563602083611021565b915061156e8261152d565b602082019050919050565b6000602082019050818103600083015261159281611556565b9050919050565b7f43616d706169676e2068617320656e6465640000000000000000000000000000600082015250565b60006115cf601283611021565b91506115da82611599565b602082019050919050565b600060208201905081810360008301526115fe816115c2565b905091905056fea264697066735822122091bc6736b00a7869956408bcb450bd787a3f2a7bb28cc7f7e6ae093642f4e88764736f6c63430008180033",
  "linkReferences": {},
  "deployedLinkReferences": {}
}